{
  "contractName": "funds",
  "abi": [
    {
      "inputs": [],
      "stateMutability": "nonpayable",
      "type": "constructor"
    },
    {
      "anonymous": false,
      "inputs": [
        {
          "indexed": false,
          "internalType": "uint256",
          "name": "amount",
          "type": "uint256"
        }
      ],
      "name": "addValue",
      "type": "event"
    },
    {
      "inputs": [
        {
          "internalType": "uint256",
          "name": "",
          "type": "uint256"
        }
      ],
      "name": "AddressArray",
      "outputs": [
        {
          "internalType": "address",
          "name": "",
          "type": "address"
        }
      ],
      "stateMutability": "view",
      "type": "function",
      "constant": true
    },
    {
      "inputs": [],
      "name": "returnManager",
      "outputs": [
        {
          "internalType": "address",
          "name": "",
          "type": "address"
        }
      ],
      "stateMutability": "view",
      "type": "function",
      "constant": true
    },
    {
      "inputs": [],
      "name": "showAmount",
      "outputs": [
        {
          "internalType": "uint256",
          "name": "",
          "type": "uint256"
        }
      ],
      "stateMutability": "view",
      "type": "function",
      "constant": true
    },
    {
      "inputs": [
        {
          "internalType": "uint256",
          "name": "a",
          "type": "uint256"
        }
      ],
      "name": "addToAmount",
      "outputs": [],
      "stateMutability": "nonpayable",
      "type": "function"
    },
    {
      "inputs": [
        {
          "internalType": "uint256",
          "name": "a",
          "type": "uint256"
        }
      ],
      "name": "giveFromAmount",
      "outputs": [],
      "stateMutability": "nonpayable",
      "type": "function"
    }
  ],
  "bytecode": "0x608060405234801561001057600080fd5b50336000806101000a81548173ffffffffffffffffffffffffffffffffffffffff021916908373ffffffffffffffffffffffffffffffffffffffff1602179055506103cd806100606000396000f3fe608060405234801561001057600080fd5b50600436106100575760003560e01c806325351f911461005c5780635826620d146100785780635cfb5ff514610094578063c3b2cef2146100b2578063ef3b8ff1146100e2575b600080fd5b6100766004803603810190610071919061024d565b610100565b005b610092600480360381019061008d919061024d565b610150565b005b61009c6101a0565b6040516100a99190610289565b60405180910390f35b6100cc60048036038101906100c7919061024d565b6101aa565b6040516100d991906102e5565b60405180910390f35b6100ea6101e9565b6040516100f791906102e5565b60405180910390f35b8060015461010e919061032f565b6001819055507f5b9af12b61ae3172176943d8af35137c69efb6fa29d81cee8155f088b63bd8f86001546040516101459190610289565b60405180910390a150565b8060015461015e9190610363565b6001819055507f5b9af12b61ae3172176943d8af35137c69efb6fa29d81cee8155f088b63bd8f86001546040516101959190610289565b60405180910390a150565b6000600154905090565b600281815481106101ba57600080fd5b906000526020600020016000915054906101000a900473ffffffffffffffffffffffffffffffffffffffff1681565b60008060009054906101000a900473ffffffffffffffffffffffffffffffffffffffff16905090565b600080fd5b6000819050919050565b61022a81610217565b811461023557600080fd5b50565b60008135905061024781610221565b92915050565b60006020828403121561026357610262610212565b5b600061027184828501610238565b91505092915050565b61028381610217565b82525050565b600060208201905061029e600083018461027a565b92915050565b600073ffffffffffffffffffffffffffffffffffffffff82169050919050565b60006102cf826102a4565b9050919050565b6102df816102c4565b82525050565b60006020820190506102fa60008301846102d6565b92915050565b7f4e487b7100000000000000000000000000000000000000000000000000000000600052601160045260246000fd5b600061033a82610217565b915061034583610217565b925082820390508181111561035d5761035c610300565b5b92915050565b600061036e82610217565b915061037983610217565b925082820190508082111561039157610390610300565b5b9291505056fea264697066735822122015385e9df2fc666cc2d00ee7550c7dbd4894aabd742ae3032e015a39f4e6182564736f6c63430008130033",
  "immutableReferences": {},
  "source": "// SPDX-License-Identifier: MIT\npragma solidity 0.8.19;\n\ncontract funds{\n    address manager;\n    uint256 amount; \n    address[] public AddressArray;\n    constructor(){\n        manager=msg.sender;\n    }\n\n    function returnManager()public view returns(address){\n        return manager;\n    }\n\n    function showAmount()public view returns(uint256){\n        return amount;\n    }\n\n    function addToAmount(uint256 a)public{\n        amount=amount + a;\n        emit addValue(amount);\n    }\n    function giveFromAmount(uint256 a)public{\n        amount=amount-a;\n        emit addValue(amount);\n    }\n\n    event addValue(uint256 amount);\n\n/*\n    // Function to add an address to the dynamic array\n   function addAddress(address newAddress) public {\n        AddressArray.push(newAddress);\n    }\n\n    // Function to get the length of the dynamic array\n    function getArrayLength() public view returns (uint) {\n        return AddressArray.length;\n    }\n\n    // Function to get an address at a specific index in the array\n    function isAddressPresent(address _a) public view returns (bool) {\n        for(uint256 i=0;i<AddressArray.length;i++){\n            if(AddressArray[i]==_a){\n                return true;\n            }\n        }\n        return false;\n    }\n    */\n}",
  "sourcePath": "D:\\ubaid\\Web development\\web 3\\projects\\property_rent\\contracts\\PriceTransfer.sol",
  "compiler": {
    "name": "solc",
    "version": "0.8.19+commit.7dd6d404.Emscripten.clang"
  },
  "schemaVersion": "3.4.16",
  "updatedAt": "2023-11-20T19:19:47.754Z",
  "networkType": "ethereum",
  "devdoc": {
    "kind": "dev",
    "methods": {},
    "version": 1
  },
  "userdoc": {
    "kind": "user",
    "methods": {},
    "version": 1
  }
}