{
  "contractName": "give",
  "abi": [
    {
      "inputs": [],
      "stateMutability": "nonpayable",
      "type": "constructor"
    },
    {
      "inputs": [
        {
          "internalType": "uint256",
          "name": "",
          "type": "uint256"
        },
        {
          "internalType": "uint256",
          "name": "",
          "type": "uint256"
        }
      ],
      "name": "investmentList",
      "outputs": [
        {
          "internalType": "uint256",
          "name": "id",
          "type": "uint256"
        },
        {
          "internalType": "string",
          "name": "description",
          "type": "string"
        },
        {
          "internalType": "uint256",
          "name": "request",
          "type": "uint256"
        },
        {
          "internalType": "uint256",
          "name": "amount",
          "type": "uint256"
        },
        {
          "internalType": "address payable",
          "name": "receipient",
          "type": "address"
        },
        {
          "internalType": "bool",
          "name": "isExecuted",
          "type": "bool"
        },
        {
          "internalType": "bool",
          "name": "requestSatisfied",
          "type": "bool"
        }
      ],
      "stateMutability": "view",
      "type": "function",
      "constant": true
    },
    {
      "inputs": [],
      "name": "investorId",
      "outputs": [
        {
          "internalType": "uint256",
          "name": "",
          "type": "uint256"
        }
      ],
      "stateMutability": "view",
      "type": "function",
      "constant": true
    },
    {
      "inputs": [
        {
          "internalType": "uint256",
          "name": "",
          "type": "uint256"
        }
      ],
      "name": "investors",
      "outputs": [
        {
          "internalType": "uint256",
          "name": "id",
          "type": "uint256"
        },
        {
          "internalType": "address payable",
          "name": "investorAddress",
          "type": "address"
        },
        {
          "internalType": "uint256",
          "name": "amountContributed",
          "type": "uint256"
        }
      ],
      "stateMutability": "view",
      "type": "function",
      "constant": true
    },
    {
      "inputs": [],
      "name": "manager",
      "outputs": [
        {
          "internalType": "address",
          "name": "",
          "type": "address"
        }
      ],
      "stateMutability": "view",
      "type": "function",
      "constant": true
    },
    {
      "inputs": [],
      "name": "nextProposalId",
      "outputs": [
        {
          "internalType": "uint256",
          "name": "",
          "type": "uint256"
        }
      ],
      "stateMutability": "view",
      "type": "function",
      "constant": true
    },
    {
      "inputs": [
        {
          "internalType": "uint256",
          "name": "",
          "type": "uint256"
        }
      ],
      "name": "proposals",
      "outputs": [
        {
          "internalType": "uint256",
          "name": "id",
          "type": "uint256"
        },
        {
          "internalType": "string",
          "name": "description",
          "type": "string"
        },
        {
          "internalType": "uint256",
          "name": "request",
          "type": "uint256"
        },
        {
          "internalType": "uint256",
          "name": "amount",
          "type": "uint256"
        },
        {
          "internalType": "address payable",
          "name": "receipient",
          "type": "address"
        },
        {
          "internalType": "bool",
          "name": "isExecuted",
          "type": "bool"
        },
        {
          "internalType": "bool",
          "name": "requestSatisfied",
          "type": "bool"
        }
      ],
      "stateMutability": "view",
      "type": "function",
      "constant": true
    },
    {
      "inputs": [
        {
          "internalType": "string",
          "name": "description",
          "type": "string"
        },
        {
          "internalType": "uint256",
          "name": "request",
          "type": "uint256"
        },
        {
          "internalType": "address payable",
          "name": "receipient",
          "type": "address"
        }
      ],
      "name": "createProposal",
      "outputs": [],
      "stateMutability": "nonpayable",
      "type": "function"
    },
    {
      "inputs": [
        {
          "internalType": "address payable",
          "name": "_add",
          "type": "address"
        }
      ],
      "name": "investorRegistor",
      "outputs": [],
      "stateMutability": "nonpayable",
      "type": "function"
    },
    {
      "inputs": [
        {
          "internalType": "uint256",
          "name": "iId",
          "type": "uint256"
        },
        {
          "internalType": "uint256",
          "name": "_id",
          "type": "uint256"
        },
        {
          "internalType": "uint256",
          "name": "_a",
          "type": "uint256"
        }
      ],
      "name": "contribution",
      "outputs": [],
      "stateMutability": "payable",
      "type": "function",
      "payable": true
    },
    {
      "inputs": [
        {
          "internalType": "uint256",
          "name": "_id",
          "type": "uint256"
        },
        {
          "internalType": "address payable",
          "name": "receipient",
          "type": "address"
        }
      ],
      "name": "_transfer",
      "outputs": [],
      "stateMutability": "payable",
      "type": "function",
      "payable": true
    },
    {
      "inputs": [],
      "name": "proposalList",
      "outputs": [
        {
          "components": [
            {
              "internalType": "uint256",
              "name": "id",
              "type": "uint256"
            },
            {
              "internalType": "string",
              "name": "description",
              "type": "string"
            },
            {
              "internalType": "uint256",
              "name": "request",
              "type": "uint256"
            },
            {
              "internalType": "uint256",
              "name": "amount",
              "type": "uint256"
            },
            {
              "internalType": "address payable",
              "name": "receipient",
              "type": "address"
            },
            {
              "internalType": "bool",
              "name": "isExecuted",
              "type": "bool"
            },
            {
              "internalType": "bool",
              "name": "requestSatisfied",
              "type": "bool"
            }
          ],
          "internalType": "struct give.proposal[]",
          "name": "",
          "type": "tuple[]"
        }
      ],
      "stateMutability": "view",
      "type": "function",
      "constant": true
    },
    {
      "inputs": [],
      "name": "investorList",
      "outputs": [
        {
          "components": [
            {
              "internalType": "uint256",
              "name": "id",
              "type": "uint256"
            },
            {
              "internalType": "address payable",
              "name": "investorAddress",
              "type": "address"
            },
            {
              "internalType": "uint256",
              "name": "amountContributed",
              "type": "uint256"
            }
          ],
          "internalType": "struct give.investor[]",
          "name": "",
          "type": "tuple[]"
        }
      ],
      "stateMutability": "view",
      "type": "function",
      "constant": true
    }
  ],
  "bytecode": "0x608060405260016000556001805534801561001957600080fd5b5033600260006101000a81548173ffffffffffffffffffffffffffffffffffffffff021916908373ffffffffffffffffffffffffffffffffffffffff160217905550611f3f8061006a6000396000f3fe6080604052600436106100a75760003560e01c8063443895241161006457806344389524146101e1578063481c6a751461020c5780636ac1e01f14610237578063a1f8adac14610260578063a41823e41461028b578063eb4c8ebb146102a7576100a7565b8063013cf08b146100ac578063157eebef146100ef5780631942c3ce14610132578063212c19141461014e5780632ab09d14146101775780633feb5f2b146101a2575b600080fd5b3480156100b857600080fd5b506100d360048036038101906100ce9190611105565b6102d2565b6040516100e6979695949392919061122d565b60405180910390f35b3480156100fb57600080fd5b50610116600480360381019061011191906112a3565b6103d6565b604051610129979695949392919061122d565b60405180910390f35b61014c6004803603810190610147919061130f565b6104f7565b005b34801561015a57600080fd5b506101756004803603810190610170919061134f565b6105e8565b005b34801561018357600080fd5b5061018c6106f2565b604051610199919061137c565b60405180910390f35b3480156101ae57600080fd5b506101c960048036038101906101c49190611105565b6106f8565b6040516101d893929190611397565b60405180910390f35b3480156101ed57600080fd5b506101f6610742565b60405161020391906115a3565b60405180910390f35b34801561021857600080fd5b5061022161094d565b60405161022e91906115e6565b60405180910390f35b34801561024357600080fd5b5061025e60048036038101906102599190611666565b610973565b005b34801561026c57600080fd5b50610275610af8565b60405161028291906117cb565b60405180910390f35b6102a560048036038101906102a091906117ed565b610c32565b005b3480156102b357600080fd5b506102bc610f8e565b6040516102c9919061137c565b60405180910390f35b60036020528060005260406000206000915090508060000154908060010180546102fb9061186f565b80601f01602080910402602001604051908101604052809291908181526020018280546103279061186f565b80156103745780601f1061034957610100808354040283529160200191610374565b820191906000526020600020905b81548152906001019060200180831161035757829003601f168201915b5050505050908060020154908060030154908060040160009054906101000a900473ffffffffffffffffffffffffffffffffffffffff16908060040160149054906101000a900460ff16908060040160159054906101000a900460ff16905087565b600560205281600052604060002081815481106103f257600080fd5b90600052602060002090600502016000915091505080600001549080600101805461041c9061186f565b80601f01602080910402602001604051908101604052809291908181526020018280546104489061186f565b80156104955780601f1061046a57610100808354040283529160200191610495565b820191906000526020600020905b81548152906001019060200180831161047857829003601f168201915b5050505050908060020154908060030154908060040160009054906101000a900473ffffffffffffffffffffffffffffffffffffffff16908060040160149054906101000a900460ff16908060040160159054906101000a900460ff16905087565b3373ffffffffffffffffffffffffffffffffffffffff16600260009054906101000a900473ffffffffffffffffffffffffffffffffffffffff1673ffffffffffffffffffffffffffffffffffffffff1614610587576040517f08c379a000000000000000000000000000000000000000000000000000000000815260040161057e906118ec565b60405180910390fd5b8073ffffffffffffffffffffffffffffffffffffffff166108fc60036000858152602001908152602001600020600301549081150290604051600060405180830381858888f193505050501580156105e3573d6000803e3d6000fd5b505050565b6105f133610f94565b610630576040517f08c379a000000000000000000000000000000000000000000000000000000000815260040161062790611958565b60405180910390fd5b604051806060016040528060015481526020018273ffffffffffffffffffffffffffffffffffffffff16815260200160008152506004600060015481526020019081526020016000206000820151816000015560208201518160010160006101000a81548173ffffffffffffffffffffffffffffffffffffffff021916908373ffffffffffffffffffffffffffffffffffffffff16021790555060408201518160020155905050600160008154809291906106ea906119a7565b919050555050565b60005481565b60046020528060005260406000206000915090508060000154908060010160009054906101000a900473ffffffffffffffffffffffffffffffffffffffff16908060020154905083565b60606000805467ffffffffffffffff811115610761576107606119ef565b5b60405190808252806020026020018201604052801561079a57816020015b610787611037565b81526020019060019003908161077f5790505b5090506000600190505b60005481101561094557600360008281526020019081526020016000206040518060e0016040529081600082015481526020016001820180546107e69061186f565b80601f01602080910402602001604051908101604052809291908181526020018280546108129061186f565b801561085f5780601f106108345761010080835404028352916020019161085f565b820191906000526020600020905b81548152906001019060200180831161084257829003601f168201915b5050505050815260200160028201548152602001600382015481526020016004820160009054906101000a900473ffffffffffffffffffffffffffffffffffffffff1673ffffffffffffffffffffffffffffffffffffffff1673ffffffffffffffffffffffffffffffffffffffff1681526020016004820160149054906101000a900460ff161515151581526020016004820160159054906101000a900460ff161515151581525050826001836109169190611a1e565b8151811061092757610926611a52565b5b6020026020010181905250808061093d906119a7565b9150506107a4565b508091505090565b600260009054906101000a900473ffffffffffffffffffffffffffffffffffffffff1681565b6040518060e00160405280600054815260200185858080601f016020809104026020016040519081016040528093929190818152602001838380828437600081840152601f19601f820116905080830192505050505050508152602001838152602001600081526020018273ffffffffffffffffffffffffffffffffffffffff168152602001600015158152602001600015158152506003600080548152602001908152602001600020600082015181600001556020820151816001019081610a3c9190611c2d565b50604082015181600201556060820151816003015560808201518160040160006101000a81548173ffffffffffffffffffffffffffffffffffffffff021916908373ffffffffffffffffffffffffffffffffffffffff16021790555060a08201518160040160146101000a81548160ff02191690831515021790555060c08201518160040160156101000a81548160ff021916908315150217905550905050600080815480929190610aed906119a7565b919050555050505050565b6060600060015467ffffffffffffffff811115610b1857610b176119ef565b5b604051908082528060200260200182016040528015610b5157816020015b610b3e61108e565b815260200190600190039081610b365790505b5090506000600190505b600154811015610c2a5760046000828152602001908152602001600020604051806060016040529081600082015481526020016001820160009054906101000a900473ffffffffffffffffffffffffffffffffffffffff1673ffffffffffffffffffffffffffffffffffffffff1673ffffffffffffffffffffffffffffffffffffffff16815260200160028201548152505082600183610bfb9190611a1e565b81518110610c0c57610c0b611a52565b5b60200260200101819052508080610c22906119a7565b915050610b5b565b508091505090565b6003600083815260200190815260200160002060030154600360008481526020019081526020016000206002015410158015610c955750600015156003600084815260200190815260200160002060040160149054906101000a900460ff161515145b610cd4576040517f08c379a0000000000000000000000000000000000000000000000000000000008152600401610ccb90611d4b565b60405180910390fd5b60008111610d17576040517f08c379a0000000000000000000000000000000000000000000000000000000008152600401610d0e90611db7565b60405180910390fd5b6003600083815260200190815260200160002060020154816003600085815260200190815260200160002060030154610d509190611dd7565b03610de9576003600083815260200190815260200160002060020154600360008481526020019081526020016000206003018190555060016003600084815260200190815260200160002060040160156101000a81548160ff02191690831515021790555060016003600084815260200190815260200160002060040160146101000a81548160ff021916908315150217905550610e17565b80600360008481526020019081526020016000206003016000828254610e0f9190611dd7565b925050819055505b600560008481526020019081526020016000206003600084815260200190815260200160002090806001815401808255809150506001900390600052602060002090600502016000909190919091506000820154816000015560018201816001019081610e849190611e21565b5060028201548160020155600382015481600301556004820160009054906101000a900473ffffffffffffffffffffffffffffffffffffffff168160040160006101000a81548173ffffffffffffffffffffffffffffffffffffffff021916908373ffffffffffffffffffffffffffffffffffffffff1602179055506004820160149054906101000a900460ff168160040160146101000a81548160ff0219169083151502179055506004820160159054906101000a900460ff168160040160156101000a81548160ff021916908315150217905550505080600460008581526020019081526020016000206002016000828254610f829190611dd7565b92505081905550505050565b60015481565b600080600190505b60015481101561102c578273ffffffffffffffffffffffffffffffffffffffff166004600083815260200190815260200160002060010160009054906101000a900473ffffffffffffffffffffffffffffffffffffffff1673ffffffffffffffffffffffffffffffffffffffff1603611019576000915050611032565b8080611024906119a7565b915050610f9c565b50600190505b919050565b6040518060e0016040528060008152602001606081526020016000815260200160008152602001600073ffffffffffffffffffffffffffffffffffffffff1681526020016000151581526020016000151581525090565b604051806060016040528060008152602001600073ffffffffffffffffffffffffffffffffffffffff168152602001600081525090565b600080fd5b600080fd5b6000819050919050565b6110e2816110cf565b81146110ed57600080fd5b50565b6000813590506110ff816110d9565b92915050565b60006020828403121561111b5761111a6110c5565b5b6000611129848285016110f0565b91505092915050565b61113b816110cf565b82525050565b600081519050919050565b600082825260208201905092915050565b60005b8381101561117b578082015181840152602081019050611160565b60008484015250505050565b6000601f19601f8301169050919050565b60006111a382611141565b6111ad818561114c565b93506111bd81856020860161115d565b6111c681611187565b840191505092915050565b600073ffffffffffffffffffffffffffffffffffffffff82169050919050565b60006111fc826111d1565b9050919050565b61120c816111f1565b82525050565b60008115159050919050565b61122781611212565b82525050565b600060e082019050611242600083018a611132565b81810360208301526112548189611198565b90506112636040830188611132565b6112706060830187611132565b61127d6080830186611203565b61128a60a083018561121e565b61129760c083018461121e565b98975050505050505050565b600080604083850312156112ba576112b96110c5565b5b60006112c8858286016110f0565b92505060206112d9858286016110f0565b9150509250929050565b6112ec816111f1565b81146112f757600080fd5b50565b600081359050611309816112e3565b92915050565b60008060408385031215611326576113256110c5565b5b6000611334858286016110f0565b9250506020611345858286016112fa565b9150509250929050565b600060208284031215611365576113646110c5565b5b6000611373848285016112fa565b91505092915050565b60006020820190506113916000830184611132565b92915050565b60006060820190506113ac6000830186611132565b6113b96020830185611203565b6113c66040830184611132565b949350505050565b600081519050919050565b600082825260208201905092915050565b6000819050602082019050919050565b611403816110cf565b82525050565b600082825260208201905092915050565b600061142582611141565b61142f8185611409565b935061143f81856020860161115d565b61144881611187565b840191505092915050565b61145c816111f1565b82525050565b61146b81611212565b82525050565b600060e08301600083015161148960008601826113fa565b50602083015184820360208601526114a1828261141a565b91505060408301516114b660408601826113fa565b5060608301516114c960608601826113fa565b5060808301516114dc6080860182611453565b5060a08301516114ef60a0860182611462565b5060c083015161150260c0860182611462565b508091505092915050565b60006115198383611471565b905092915050565b6000602082019050919050565b6000611539826113ce565b61154381856113d9565b935083602082028501611555856113ea565b8060005b858110156115915784840389528151611572858261150d565b945061157d83611521565b925060208a01995050600181019050611559565b50829750879550505050505092915050565b600060208201905081810360008301526115bd818461152e565b905092915050565b60006115d0826111d1565b9050919050565b6115e0816115c5565b82525050565b60006020820190506115fb60008301846115d7565b92915050565b600080fd5b600080fd5b600080fd5b60008083601f84011261162657611625611601565b5b8235905067ffffffffffffffff81111561164357611642611606565b5b60208301915083600182028301111561165f5761165e61160b565b5b9250929050565b600080600080606085870312156116805761167f6110c5565b5b600085013567ffffffffffffffff81111561169e5761169d6110ca565b5b6116aa87828801611610565b945094505060206116bd878288016110f0565b92505060406116ce878288016112fa565b91505092959194509250565b600081519050919050565b600082825260208201905092915050565b6000819050602082019050919050565b60608201600082015161171c60008501826113fa565b50602082015161172f6020850182611453565b50604082015161174260408501826113fa565b50505050565b60006117548383611706565b60608301905092915050565b6000602082019050919050565b6000611778826116da565b61178281856116e5565b935061178d836116f6565b8060005b838110156117be5781516117a58882611748565b97506117b083611760565b925050600181019050611791565b5085935050505092915050565b600060208201905081810360008301526117e5818461176d565b905092915050565b600080600060608486031215611806576118056110c5565b5b6000611814868287016110f0565b9350506020611825868287016110f0565b9250506040611836868287016110f0565b9150509250925092565b7f4e487b7100000000000000000000000000000000000000000000000000000000600052602260045260246000fd5b6000600282049050600182168061188757607f821691505b60208210810361189a57611899611840565b5b50919050565b7f596f7520617265206e6f7420616e204d616e6167657200000000000000000000600082015250565b60006118d660168361114c565b91506118e1826118a0565b602082019050919050565b60006020820190508181036000830152611905816118c9565b9050919050565b7f4164647265737320616c72656164792072656769737465726564000000000000600082015250565b6000611942601a8361114c565b915061194d8261190c565b602082019050919050565b6000602082019050818103600083015261197181611935565b9050919050565b7f4e487b7100000000000000000000000000000000000000000000000000000000600052601160045260246000fd5b60006119b2826110cf565b91507fffffffffffffffffffffffffffffffffffffffffffffffffffffffffffffffff82036119e4576119e3611978565b5b600182019050919050565b7f4e487b7100000000000000000000000000000000000000000000000000000000600052604160045260246000fd5b6000611a29826110cf565b9150611a34836110cf565b9250828203905081811115611a4c57611a4b611978565b5b92915050565b7f4e487b7100000000000000000000000000000000000000000000000000000000600052603260045260246000fd5b60008190508160005260206000209050919050565b60006020601f8301049050919050565b600082821b905092915050565b600060088302611ae37fffffffffffffffffffffffffffffffffffffffffffffffffffffffffffffffff82611aa6565b611aed8683611aa6565b95508019841693508086168417925050509392505050565b6000819050919050565b6000611b2a611b25611b20846110cf565b611b05565b6110cf565b9050919050565b6000819050919050565b611b4483611b0f565b611b58611b5082611b31565b848454611ab3565b825550505050565b600090565b611b6d611b60565b611b78818484611b3b565b505050565b5b81811015611b9c57611b91600082611b65565b600181019050611b7e565b5050565b601f821115611be157611bb281611a81565b611bbb84611a96565b81016020851015611bca578190505b611bde611bd685611a96565b830182611b7d565b50505b505050565b600082821c905092915050565b6000611c0460001984600802611be6565b1980831691505092915050565b6000611c1d8383611bf3565b9150826002028217905092915050565b611c3682611141565b67ffffffffffffffff811115611c4f57611c4e6119ef565b5b611c59825461186f565b611c64828285611ba0565b600060209050601f831160018114611c975760008415611c85578287015190505b611c8f8582611c11565b865550611cf7565b601f198416611ca586611a81565b60005b82811015611ccd57848901518255600182019150602085019450602081019050611ca8565b86831015611cea5784890151611ce6601f891682611bf3565b8355505b6001600288020188555050505b505050505050565b7f50726f706f73616c20686173206265656e206578656375746564000000000000600082015250565b6000611d35601a8361114c565b9150611d4082611cff565b602082019050919050565b60006020820190508181036000830152611d6481611d28565b9050919050565b7f53656e64206d6f7265207468616e203020657468657200000000000000000000600082015250565b6000611da160168361114c565b9150611dac82611d6b565b602082019050919050565b60006020820190508181036000830152611dd081611d94565b9050919050565b6000611de2826110cf565b9150611ded836110cf565b9250828201905080821115611e0557611e04611978565b5b92915050565b600081549050611e1a8161186f565b9050919050565b818103611e2f575050611f07565b611e3882611e0b565b67ffffffffffffffff811115611e5157611e506119ef565b5b611e5b825461186f565b611e66828285611ba0565b6000601f831160018114611e955760008415611e83578287015490505b611e8d8582611c11565b865550611f00565b601f198416611ea387611a81565b9650611eae86611a81565b60005b82811015611ed657848901548255600182019150600185019450602081019050611eb1565b86831015611ef35784890154611eef601f891682611bf3565b8355505b6001600288020188555050505b5050505050505b56fea26469706673582212206668a8a0d6271e74d97ee4fb31a995646b91e40991e89002c27c9eff3dfffb2664736f6c63430008130033",
  "immutableReferences": {},
  "source": "// SPDX-License-Identifier: MIT\npragma solidity 0.8.19;\n\ncontract give{\n    struct proposal{\n        uint id;\n        string description;\n        uint request;\n        uint amount;\n        address payable receipient;\n        bool isExecuted;\n        bool requestSatisfied;\n    }\n    struct investor{\n        uint256 id;\n        address payable investorAddress;\n        uint256 amountContributed;\n    }\n    \n\n    uint256 public nextProposalId=1;\n    uint256 public investorId=1;\n    address public manager;\n    mapping(uint256=>proposal) public proposals;\n    mapping(uint256=>investor) public investors;\n    mapping(uint256=>proposal[])public investmentList;\n\n    constructor(){\n        manager=msg.sender;\n    }\n    modifier onlyManager(){\n        require(manager==msg.sender,\"You are not an Manager\");\n        _;\n    }\n\n\n    function createProposal(string calldata description,uint request, address payable receipient)public{\n        proposals[nextProposalId]=proposal(nextProposalId,description,request,0,receipient,false,false);\n        nextProposalId++;\n    }\n    function investorRegistor(address payable _add)public {\n        require(investorVerification(msg.sender),\"Address already registered\");\n        investors[investorId]=investor(investorId,_add,0);\n        investorId++;\n    }\n    function investorVerification(address _person)internal view returns(bool){\n        for(uint i=1;i<investorId;i++){\n            if(investors[i].investorAddress==_person){\n                return false;\n            }\n        }\n        return true;  \n    }\n\n\n    function contribution(uint256 iId,uint256 _id,uint256 _a) public payable {\n        require(proposals[_id].request>=proposals[_id].amount\n        && proposals[_id].isExecuted==false,\"Proposal has been executed\");\n        require(_a>0,\"Send more than 0 ether\");\n        \n        if(proposals[_id].amount+_a==proposals[_id].request){\n                proposals[_id].amount=proposals[_id].request;\n                proposals[_id].requestSatisfied=true;\n                proposals[_id].isExecuted=true;\n        }else{\n            proposals[_id].amount+=_a;\n        }\n        investmentList[iId].push(proposals[_id]);\n        investors[iId].amountContributed+=_a;\n    }\n\n    function _transfer(uint256 _id,address payable receipient)public  payable onlyManager(){\n        receipient.transfer(proposals[_id].amount);\n    }\n\n\n    function proposalList()public view returns(proposal[] memory){\n        proposal[] memory array=new proposal[](nextProposalId);\n        for(uint i=1;i<nextProposalId;i++){\n            array[i-1]=proposals[i];\n        }\n        return array; \n    }\n    function investorList()public view returns(investor[] memory){\n        investor[] memory array=new investor[](investorId);\n        \n        for(uint i=1;i<investorId;i++){\n            array[i-1]=investors[i];\n        }\n        return array; \n    }\n\n}",
  "sourcePath": "D:\\ubaid\\Web development\\web 3\\projects\\property_rent\\contracts\\PriceTransfer.sol",
  "compiler": {
    "name": "solc",
    "version": "0.8.19+commit.7dd6d404.Emscripten.clang"
  },
  "schemaVersion": "3.4.16",
  "updatedAt": "2023-11-11T22:22:27.015Z",
  "networkType": "ethereum",
  "devdoc": {
    "kind": "dev",
    "methods": {},
    "version": 1
  },
  "userdoc": {
    "kind": "user",
    "methods": {},
    "version": 1
  }
}