{
  "contractName": "PriceTransfer",
  "abi": [
    {
      "inputs": [
        {
          "internalType": "address",
          "name": "_receiver",
          "type": "address"
        }
      ],
      "stateMutability": "nonpayable",
      "type": "constructor"
    },
    {
      "anonymous": false,
      "inputs": [
        {
          "indexed": true,
          "internalType": "address",
          "name": "sender",
          "type": "address"
        },
        {
          "indexed": true,
          "internalType": "address",
          "name": "receiver",
          "type": "address"
        },
        {
          "indexed": false,
          "internalType": "uint256",
          "name": "price",
          "type": "uint256"
        }
      ],
      "name": "TransferCompleted",
      "type": "event"
    },
    {
      "inputs": [],
      "name": "isTransferred",
      "outputs": [
        {
          "internalType": "bool",
          "name": "",
          "type": "bool"
        }
      ],
      "stateMutability": "view",
      "type": "function"
    },
    {
      "inputs": [],
      "name": "price",
      "outputs": [
        {
          "internalType": "uint256",
          "name": "",
          "type": "uint256"
        }
      ],
      "stateMutability": "view",
      "type": "function"
    },
    {
      "inputs": [],
      "name": "receiver",
      "outputs": [
        {
          "internalType": "address",
          "name": "",
          "type": "address"
        }
      ],
      "stateMutability": "view",
      "type": "function"
    },
    {
      "inputs": [],
      "name": "sender",
      "outputs": [
        {
          "internalType": "address",
          "name": "",
          "type": "address"
        }
      ],
      "stateMutability": "view",
      "type": "function"
    },
    {
      "inputs": [],
      "name": "transferAmount",
      "outputs": [],
      "stateMutability": "payable",
      "type": "function"
    }
  ],
  "bytecode": "0x608060405234801561001057600080fd5b506040516107d13803806107d183398181016040528101906100329190610137565b336000806101000a81548173ffffffffffffffffffffffffffffffffffffffff021916908373ffffffffffffffffffffffffffffffffffffffff16021790555080600160006101000a81548173ffffffffffffffffffffffffffffffffffffffff021916908373ffffffffffffffffffffffffffffffffffffffff1602179055506000600360006101000a81548160ff02191690831515021790555050610164565b600080fd5b600073ffffffffffffffffffffffffffffffffffffffff82169050919050565b6000610104826100d9565b9050919050565b610114816100f9565b811461011f57600080fd5b50565b6000815190506101318161010b565b92915050565b60006020828403121561014d5761014c6100d4565b5b600061015b84828501610122565b91505092915050565b61065e806101736000396000f3fe60806040526004361061004a5760003560e01c8063504d27fd1461004f578063603159ab1461005957806367e404ce14610084578063a035b1fe146100af578063f7260d3e146100da575b600080fd5b610057610105565b005b34801561006557600080fd5b5061006e61035e565b60405161007b91906103dc565b60405180910390f35b34801561009057600080fd5b50610099610371565b6040516100a69190610438565b60405180910390f35b3480156100bb57600080fd5b506100c4610395565b6040516100d1919061046c565b60405180910390f35b3480156100e657600080fd5b506100ef61039b565b6040516100fc9190610438565b60405180910390f35b60008054906101000a900473ffffffffffffffffffffffffffffffffffffffff1673ffffffffffffffffffffffffffffffffffffffff163373ffffffffffffffffffffffffffffffffffffffff1614610193576040517f08c379a000000000000000000000000000000000000000000000000000000000815260040161018a9061050a565b60405180910390fd5b600360009054906101000a900460ff16156101e3576040517f08c379a00000000000000000000000000000000000000000000000000000000081526004016101da9061059c565b60405180910390fd5b60003411610226576040517f08c379a000000000000000000000000000000000000000000000000000000000815260040161021d90610608565b60405180910390fd5b6001600360006101000a81548160ff02191690831515021790555034600281905550600160009054906101000a900473ffffffffffffffffffffffffffffffffffffffff1673ffffffffffffffffffffffffffffffffffffffff1660008054906101000a900473ffffffffffffffffffffffffffffffffffffffff1673ffffffffffffffffffffffffffffffffffffffff167f0300ac1392a8a3b96b8b9c8eb7bf6ad973c028c4cea499a0936076cbdbe87ecf6002546040516102e9919061046c565b60405180910390a3600160009054906101000a900473ffffffffffffffffffffffffffffffffffffffff1673ffffffffffffffffffffffffffffffffffffffff166108fc6002549081150290604051600060405180830381858888f1935050505015801561035b573d6000803e3d6000fd5b50565b600360009054906101000a900460ff1681565b60008054906101000a900473ffffffffffffffffffffffffffffffffffffffff1681565b60025481565b600160009054906101000a900473ffffffffffffffffffffffffffffffffffffffff1681565b60008115159050919050565b6103d6816103c1565b82525050565b60006020820190506103f160008301846103cd565b92915050565b600073ffffffffffffffffffffffffffffffffffffffff82169050919050565b6000610422826103f7565b9050919050565b61043281610417565b82525050565b600060208201905061044d6000830184610429565b92915050565b6000819050919050565b61046681610453565b82525050565b6000602082019050610481600083018461045d565b92915050565b600082825260208201905092915050565b7f4f6e6c79207468652073656e6465722063616e2063616c6c207468697320667560008201527f6e6374696f6e0000000000000000000000000000000000000000000000000000602082015250565b60006104f4602683610487565b91506104ff82610498565b604082019050919050565b60006020820190508181036000830152610523816104e7565b9050919050565b7f54686520616d6f756e742068617320616c7265616479206265656e207472616e60008201527f7366657272656400000000000000000000000000000000000000000000000000602082015250565b6000610586602783610487565b91506105918261052a565b604082019050919050565b600060208201905081810360008301526105b581610579565b9050919050565b7f496e76616c696420616d6f756e74000000000000000000000000000000000000600082015250565b60006105f2600e83610487565b91506105fd826105bc565b602082019050919050565b60006020820190508181036000830152610621816105e5565b905091905056fea2646970667358221220c3c4bd50b3c0325d93c03926ac02ff9a8d9db08b51a76e144350a8a53c2040f864736f6c63430008130033",
  "immutableReferences": {},
  "source": "// SPDX-License-Identifier: MIT\npragma solidity ^0.8.0;\n\ncontract PriceTransfer {\n\n    address public sender;\n    address public receiver;\n    uint256 public price;\n    bool public isTransferred;\n\n    event TransferCompleted(address indexed sender, address indexed receiver, uint256 price);\n\n    constructor(address _receiver) {\n        sender = msg.sender;\n        receiver = _receiver;\n        isTransferred = false;\n    }\n\n    modifier onlySender() {\n        require(msg.sender == sender, \"Only the sender can call this function\");\n        _;\n    }\n\n    modifier notTransferred() {\n        require(!isTransferred, \"The amount has already been transferred\");\n        _;\n    }\n\n    function transferAmount() external payable onlySender notTransferred {\n        require(msg.value > 0, \"Invalid amount\");\n\n        isTransferred = true;\n        price = msg.value;\n        emit TransferCompleted(sender, receiver, price);\n\n        // Transfer the payment to the receiver\n        payable(receiver).transfer(price);\n    }\n}\ncontract give{\n    struct property{\n        string name;\n        address owner;\n    }\n\n    mapping(uint256=>property)propertyMap;\n    uint256 public id=0;\n    function addProperty(string calldata _name,address _owner)public{\n        propertyMap[id]=property(_name,_owner);\n        id++;\n    }\n    function giveproperty(uint256 _id)public view returns(property[] memory){\n        \n        property[] memory array= new property[](id);\n        for(uint i=1;i<id;i++){\n            array[i-1]=propertyMap[i];\n        }\n        return array; \n    }\n}\n",
  "sourcePath": "D:\\ubaid\\Web development\\web 3\\projects\\property_rent\\contracts\\PriceTransfer.sol",
  "compiler": {
    "name": "solc",
    "version": "0.8.19+commit.7dd6d404.Emscripten.clang"
  },
  "schemaVersion": "3.4.16",
  "updatedAt": "2023-11-08T18:10:45.180Z",
  "devdoc": {
    "kind": "dev",
    "methods": {},
    "version": 1
  },
  "userdoc": {
    "kind": "user",
    "methods": {},
    "version": 1
  }
}